:100000000C942A000C9447000C9447000C94470071
:100010000C9447000C9447000C940E150C94470068
:100020000C9447000C9447000C94E3130C941614A2
:100030000C9447000C9447000C9447000C94470024
:100040000C9447000C9447000C9447000C94470014
:100050000C94470011241FBECFE5D8E0DEBFCDBF12
:1000600010E0A0E6B0E0EAEFFBE302C005900D92DD
:10007000AA38B107D9F710E0AAE8B0E001C01D9294
:10008000A13AB107E1F70E946C150C94FB1D0C948A
:100090000000EF92FF920F931F937B018C0120E0F1
:1000A00030E040E05FE40E94F50388238CF0C80153
:1000B000B70120E030E040E05FE40E94C1010E940F
:1000C00055049B01AC01205030404040504806C0D0
:1000D000C801B7010E9455049B01AC01B901CA01D6
:1000E0001F910F91FF90EF900895A0E0B0E0EBE733
:1000F000F0E00C94C41DDC012B01FA019C919230BC
:1001000008F439C1EB018881823008F433C194309E
:1001100069F4843009F02FC111969C91119789815F
:10012000981709F428C1A0E6B0E025C1843009F48D
:1001300021C18230A9F4923009F01DC19A01AD01AC
:1001400088E0EA010990AE01E90109929E0181501F
:10015000C1F7E201898111969C918923818308C1AD
:10016000923009F407C112962D903C901397EB0141
:100170008A819B811496AD90BD90CD90DC901797AD
:10018000EC80FD800E811F819101281B390BB90184
:1001900037FF04C066277727621B730B6032710537
:1001A0000CF061C0121613066CF537014801062EDB
:1001B00004C096948794779467940A94D2F721E0C8
:1001C00030E040E050E004C0220F331F441F551FB1
:1001D0006A95D2F721503040404050402E213F21B7
:1001E00040235123211531054105510521F021E01E
:1001F00030E040E050E079018A01E628F72808293C
:1002000019293CC0232BD1F1260E371E350146019A
:10021000062E04C096948794779467940A94D2F734
:1002200021E030E040E050E004C0220F331F441FC3
:10023000551F6A95D2F721503040404050402A2146
:100240003B214C215D21211531054105510521F04E
:1002500021E030E040E050E059016A01A628B728CB
:10026000C828D9280BC0821593052CF01C01AA249C
:10027000BB24650103C0EE24FF24870111969C91E5
:10028000D20111968C91981709F445C0992339F041
:10029000A80197012A193B094C095D0906C0A6016E
:1002A00095012E193F09400B510B57FD08C01182D3
:1002B0003382228224833583468357831DC081E0A5
:1002C00081833382228288279927DC01821B930B4A
:1002D000A40BB50B84839583A683B7830DC0220F2F
:1002E000331F441F551F24833583468357838281E0
:1002F000938101979383828324813581468157813D
:10030000DA01C9010197A109B1098F5F9F4FAF4F72
:10031000BF4328F30BC0918333822282EA0CFB1C7B
:100320000C1D1D1DE482F5820683178383E0808304
:10033000248135814681578157FF1AC0C901AA27F8
:1003400097FDA095BA2F81709070A070B0705695EF
:10035000479537952795822B932BA42BB52B848318
:100360009583A683B7838281938101969383828349
:10037000DF0101C0D201CD01CDB7DEB7E2E10C94BF
:10038000E01DA0E2B0E0E7ECF1E00C94D01D698341
:100390007A838B839C832D833E834F835887E9E048
:1003A000EE2EF12CEC0EFD1ECE010196B7010E943F
:1003B0007E058E010F5E1F4FCE010596B8010E948B
:1003C0007E058A8991E089278A8BC701B801AE0131
:1003D000475E5F4F0E9475000E94A904A096E6E068
:1003E0000C94EC1DA0E2B0E0E8EFF1E00C94D01D1D
:1003F00069837A838B839C832D833E834F835887C5
:10040000F9E0EF2EF12CEC0EFD1ECE010196B701A6
:100410000E947E058E010F5E1F4FCE010596B8012A
:100420000E947E05C701B801AE01475E5F4F0E9482
:1004300075000E94A904A096E6E00C94EC1DA0E2D1
:10044000B0E0E5E2F2E00C94C41D69837A838B830B
:100450009C832D833E834F835887CE010196BE0136
:10046000675F7F4F0E947E05CE010596BE016F5EDD
:100470007F4F0E947E059985923088F0898982306D
:10048000C8F0943019F4823051F404C0843029F457
:10049000923081F480E690E0C6C0923049F420E0CA
:1004A0009A858A89981321E02A87CE010996BBC0D4
:1004B000823049F420E09A858A89981321E02A8BBA
:1004C000CE014196B0C02D843E844F8458886D88FB
:1004D0007E888F88988CEE24FF248701AA24BB2471
:1004E000650140E050E060E070E0E0E0F0E0C10174
:1004F00081709070892BE9F0E60CF71C081D191D1E
:100500009A01AB012A0D3B1D4C1D5D1D80E090E062
:10051000A0E0B0E0E614F7040805190520F481E036
:1005200090E0A0E0B0E0BA01A901480F591F6A1F8E
:100530007B1FAA0CBB1CCC1CDD1C97FE08C081E0F5
:1005400090E0A0E0B0E0A82AB92ACA2ADB2A3196B6
:10055000E032F10549F0660C771C881C991C569412
:10056000479437942794C3CFFA85EA892B893C892D
:100570008B859C85280F391F2E5F3F4F17C0CA01FE
:1005800081709070892B61F016950795F794E79428
:1005900080E090E0A0E0B0E8E82AF92A0A2B1B2BC3
:1005A00076956795579547952F5F3F4F77FDE7CF36
:1005B0000CC0440F551F661F771F17FD4160EE0CDE
:1005C000FF1C001F111F21503040403090E05907A0
:1005D00090E0690790E4790760F32B8F3C8FDB0193
:1005E000CA018F779070A070B07080349105A1051A
:1005F000B10561F447FD0AC0E114F10401051105DC
:1006000029F0405C5F4F6F4F7F4F40781A8EFE1786
:1006100011F081E08A8F4D8F5E8F6F8F78A383E01A
:10062000898FCE0149960E94A904A096E2E10C941C
:10063000E01DA8E1B0E0EFE1F3E00C94CC1D69838C
:100640007A838B839C832D833E834F835887B9E0C5
:10065000EB2EF12CEC0EFD1ECE010196B7010E948F
:100660007E058E010F5E1F4FCE010596B8010E94D8
:100670007E052985223008F47EC03989323010F495
:10068000B8017CC08A859A8989278A87243011F02D
:10069000223031F4231709F06EC060E670E06EC0BE
:1006A000343039F41D861E861F86188A1C861B86E8
:1006B00004C0323021F484E08987B7015FC02B8504
:1006C0003C858B899C89281B390B3C872B87ED84C3
:1006D000FE840F851889AD88BE88CF88D88CEA142F
:1006E000FB040C051D0540F4EE0CFF1C001F111F40
:1006F000215030403C872B8720E030E040E050E044
:1007000080E090E0A0E0B0E460E070E0EA14FB0478
:100710000C051D0540F0282B392B4A2B5B2BEA18C2
:10072000FB080C091D09B695A79597958795EE0CC2
:10073000FF1C001F111F6F5F7F4F6F31710531F775
:10074000DA01C9018F779070A070B0708034910584
:10075000A105B10561F427FD0AC0E114F10401050A
:10076000110529F0205C3F4F4F4F5F4F20782D87B8
:100770003E874F87588BBE01675F7F4FCB010E943A
:10078000A9046896EAE00C94E81DA8E1B0E0EBEC5F
:10079000F3E00C94D01D69837A838B839C832D8333
:1007A0003E834F83588789E0E82EF12CEC0EFD1E26
:1007B000CE010196B7010E947E058E010F5E1F4F8C
:1007C000CE010596B8010E947E058985823040F0F1
:1007D0008989823028F0C701B8010E94F60501C05E
:1007E0008FEF6896E6E00C94EC1DA8E1B0E0EBEF2B
:1007F000F3E00C94D01D69837A838B839C832D83D3
:100800003E834F83588789E0E82EF12CEC0EFD1EC5
:10081000CE010196B7010E947E058E010F5E1F4F2B
:10082000CE010596B8010E947E058985823040F090
:100830008989823028F0C701B8010E94F60501C0FD
:100840008FEF6896E6E00C94EC1DA8E1B0E0EBE2D7
:10085000F4E00C94D01D69837A838B839C832D8371
:100860003E834F83588789E0E82EF12CEC0EFD1E65
:10087000CE010196B7010E947E058E010F5E1F4FCB
:10088000CE010596B8010E947E058985823040F030
:100890008989823028F0C701B8010E94F60501C09D
:1008A00081E06896E6E00C94EC1DACE0B0E0EBE58E
:1008B000F4E00C94D41D69837A838B839C83CE01EE
:1008C0000196BE016B5F7F4F0E947E058D81823055
:1008D00061F1823050F1843021F48E81882351F10E
:1008E0002EC02F81388537FD20C06E812F31310514
:1008F0001CF06623F9F023C08EE190E0821B930B7D
:1009000029853A854B855C8504C056954795379572
:1009100027958A95D2F76623B1F05095409530958A
:1009200021953F4F4F4F5F4F0EC020E030E040E039
:1009300050E009C02FEF3FEF4FEF5FE704C020E02A
:1009400030E040E050E8B901CA012C96E2E00C9496
:10095000F01DDF92EF92FF920F931F93FC01E48052
:10096000F58006811781D1808081823048F480E053
:1009700090E0A0E1B0E0E82AF92A0A2B1B2BA5C0E1
:10098000843009F49FC0823021F4EE24FF248701D3
:1009900005C0E114F1040105110519F4E0E0F0E0EF
:1009A00096C0628173819FEF623879070CF05BC05B
:1009B00022E83FEF261B370B2A3131052CF020E0CF
:1009C00030E040E050E02AC0B801A701022E04C088
:1009D00076956795579547950A94D2F781E090E010
:1009E000A0E0B0E004C0880F991FAA1FBB1F2A9582
:1009F000D2F70197A109B1098E219F21A023B1232C
:100A00000097A105B10521F081E090E0A0E0B0E001
:100A10009A01AB01282B392B4A2B5B2BDA01C90138
:100A20008F779070A070B07080349105A105B105EA
:100A300039F427FF09C0205C3F4F4F4F5F4F04C080
:100A4000215C3F4F4F4F5F4FE0E0F0E02030A0E0EF
:100A50003A07A0E04A07A0E45A0710F0E1E0F0E00E
:100A600079018A0127C06038710564F5FB01E158FE
:100A7000FF4FD801C7018F779070A070B07080349D
:100A80009105A105B10539F4E7FE0DC080E490E0C1
:100A9000A0E0B0E004C08FE390E0A0E0B0E0E80E9A
:100AA000F91E0A1F1B1F17FF05C016950795F7941F
:100AB000E794319687E016950795F794E7948A9521
:100AC000D1F705C0EE24FF248701EFEFF0E06E2F91
:100AD000679566276795902F9F77D794DD24D794E5
:100AE0008E2F8695492F462B582F5D29B701CA01B5
:100AF0001F910F91FF90EF90DF900895FC01DB01B3
:100B0000408151812281622F6F7770E0221F22275E
:100B1000221F9381892F880F822B282F30E0991F65
:100B20009927991F11969C93119721153105A9F5C5
:100B3000411551056105710511F482E037C082E865
:100B40009FEF13969C938E9312979A01AB0167E0E7
:100B5000220F331F441F551F6A95D1F783E08C93F2
:100B60000DC0220F331F441F551F12968D919C916B
:100B70001397019713969C938E931297203080E0E1
:100B8000380780E0480780E4580758F314962D93FF
:100B90003D934D935C93179708952F3F310579F45A
:100BA000411551056105710519F484E08C93089590
:100BB00064FF03C081E08C9312C01C9210C02F57B9
:100BC000304013963C932E93129783E08C9387E0EA
:100BD000440F551F661F771F8A95D1F770641496CE
:100BE0004D935D936D937C93179708951F93DC014C
:100BF000FB019C91923008F447C08081823008F458
:100C000043C0943051F411961C91843099F5818140
:100C1000682F70E0611B71093FC0843021F0923071
:100C200031F48230B9F18181882389F12DC0119688
:100C30001C9111978230F1F081811817D9F4129626
:100C40002D913C911397828193818217930794F0A1
:100C500028173907BCF014968D919D910D90BC9189
:100C6000A02D2481358146815781281739074A07ED
:100C70005B0718F4112341F00AC082179307A407F9
:100C8000B50740F4112319F061E070E005C06FEF83
:100C90007FEF02C060E070E0CB011F910895DF9309
:100CA000CF93CDB7DEB7A7E2B0E0E7E2F0E0808116
:100CB00080648C93A7E2B0E0E7E2F0E080818F7778
:100CC0008C93A7E2B0E0E7E2F0E080818F7D8C9327
:100CD000A6E2B0E0E6E2F0E080818F7B8C93A6E2B2
:100CE000B0E0E6E2F0E080818E7F8C93A6E2B0E097
:100CF000E6E2F0E0808182608C93A6E2B0E0E6E27A
:100D0000F0E0808184608C93A6E2B0E0E6E2F0E05F
:100D1000808180688C93CF91DF910895DF93CF938A
:100D200000D00F92CDB7DEB78B831A8219828B81E8
:100D3000803270F5A7E2B0E0E7E2F0E08081807EEB
:100D40008C93A7E2B0E0E7E2F0E090818B81892B01
:100D50008C93A6E2B0E0E6E2F0E0808180648C93C0
:100D6000E6E2F0E0808182958F70882F90E08170BC
:100D700090700097A9F3A6E2B0E0E6E2F0E080818F
:100D800080618C93E4E2F0E0808191819A83898391
:100D900089819A810F900F900F90CF91DF910895E4
:100DA000DF93CF93CDB7DEB7EAE3F0E080EC80834A
:100DB000E7E3F0E08FEF8083E4E3F0E08FEF808300
:100DC000E1E3F0E08FEF8083EBE3F0E08FEF8083EF
:100DD000E8E3F0E01082E5E3F0E01082E2E3F0E027
:100DE0008FEF8083CF91DF910895DF93CF93CDB7BD
:100DF000DEB72D970FB6F894DEBF0FBECDBF898347
:100E00006A834B838981282F30E03D872C878C852E
:100E10009D858130910509F44FC02C853D85223098
:100E200031052CF48C859D85009771F0ECC02C85E4
:100E30003D852230310509F477C08C859D8583304E
:100E4000910509F4A9C0DFC08B81282F30E03B87D2
:100E50002A878A859B85009731F02A853B8521303A
:100E60003105B1F0D0C0AAE3B0E0EAE3F0E0808160
:100E7000482F8A81282F30E081E090E0022E02C0C6
:100E8000880F991F0A94E2F7809584238C93BBC046
:100E9000AAE3B0E0EAE3F0E08081482F8A81282FBE
:100EA00030E081E090E0022E02C0880F991F0A9482
:100EB000E2F7842B8C93A7C08B81282F30E03987F1
:100EC000288788859985009731F0288539852130D4
:100ED0003105B1F098C0A7E3B0E0E7E3F0E080812E
:100EE000482F8A81282F30E081E090E0022E02C056
:100EF000880F991F0A94E2F7809584238C9383C00E
:100F0000A7E3B0E0E7E3F0E08081482F8A81282F53
:100F100030E081E090E0022E02C0880F991F0A9411
:100F2000E2F7842B8C936FC08B81282F30E03F83B6
:100F30002E838E819F81009731F02E813F81213059
:100F40003105B1F060C0A4E3B0E0E4E3F0E08081FB
:100F5000482F8A81282F30E081E090E0022E02C0E5
:100F6000880F991F0A94E2F7809584238C934BC0D5
:100F7000A4E3B0E0E4E3F0E08081482F8A81282FE9
:100F800030E081E090E0022E02C0880F991F0A94A1
:100F9000E2F7842B8C9337C08B81282F30E03D8380
:100FA0002C838C819D81009731F02C813D812130F3
:100FB0003105B1F028C0A1E3B0E0E1E3F0E08081C9
:100FC000482F8A81282F30E081E090E0022E02C075
:100FD000880F991F0A94E2F7809584238C9313C09D
:100FE000A1E3B0E0E1E3F0E08081482F8A81282F7F
:100FF00030E081E090E0022E02C0880F991F0A9431
:10100000E2F7842B8C932D960FB6F894DEBF0FBEBB
:10101000CDBFCF91DF910895DF93CF93CDB7DEB7EA
:101020002D970FB6F894DEBF0FBECDBF89836A83BC
:101030004B838981282F30E03D872C878C859D85C7
:101040008130910509F44FC02C853D852230310552
:101050002CF48C859D85009771F0EBC02C853D8527
:101060002230310509F477C08C859D858330910548
:1010700009F4A9C0DEC08B81282F30E03B872A8786
:101080008A859B850097D1F02A853B8521303105E3
:1010900009F0CFC0ABE3B0E0EBE3F0E08081482F94
:1010A0008A81282F30E081E090E0022E02C0880F74
:1010B000991F0A94E2F7842B8C93BBC0ABE3B0E09A
:1010C000EBE3F0E08081482F8A81282F30E081E037
:1010D00090E0022E02C0880F991F0A94E2F78095D3
:1010E00084238C93A6C08B81282F30E039872887F2
:1010F000888599850097D1F028853985213031057B
:1011000009F097C0A8E3B0E0E8E3F0E08081482F61
:101110008A81282F30E081E090E0022E02C0880F03
:10112000991F0A94E2F7842B8C9383C0A8E3B0E064
:10113000E8E3F0E08081482F8A81282F30E081E0C9
:1011400090E0022E02C0880F991F0A94E2F7809562
:1011500084238C936EC08B81282F30E03F832E83B5
:101160008E819F810097D1F02E813F812130310502
:1011700009F05FC0A5E3B0E0E5E3F0E08081482F2F
:101180008A81282F30E081E090E0022E02C0880F93
:10119000991F0A94E2F7842B8C934BC0A5E3B0E02F
:1011A000E5E3F0E08081482F8A81282F30E081E05C
:1011B00090E0022E02C0880F991F0A94E2F78095F2
:1011C00084238C9336C08B81282F30E03D832C8381
:1011D0008C819D810097C9F02C813D8121303105A2
:1011E00041F5A2E3B0E0E2E3F0E08081482F8A819C
:1011F000282F30E081E090E0022E02C0880F991F76
:101200000A94E2F7842B8C9314C0A2E3B0E0E2E3EB
:10121000F0E08081482F8A81282F30E081E090E043
:10122000022E02C0880F991F0A94E2F7809584234A
:101230008C932D960FB6F894DEBF0FBECDBFCF9125
:10124000DF910895DF93CF9300D000D0CDB7DEB704
:1012500089836A838981282F30E03C832B838B81AB
:101260009C8181309105D1F02B813C812230310568
:101270002CF48B819C81009761F01EC02B813C81F6
:101280002230310581F08B819C818330910581F082
:1012900013C0EAE3F0E08A8180830EC0E7E3F0E068
:1012A0008A81808309C0E4E3F0E08A81808304C0FE
:1012B000E1E3F0E08A8180830F900F900F900F9010
:1012C000CF91DF910895DF93CF9300D000D0CDB7B9
:1012D000DEB789836A838981282F30E03C832B83A2
:1012E0008B819C8181309105D1F02B813C81223012
:1012F00031052CF48B819C81009761F01EC02B81FD
:101300003C812230310581F08B819C8183309105B5
:1013100081F013C0EBE3F0E08A8180830EC0E8E344
:10132000F0E08A81808309C0E5E3F0E08A81808370
:1013300004C0E2E3F0E08A8180830F900F900F9069
:101340000F90CF91DF910895DF93CF93CDB7DEB7A4
:1013500027970FB6F894DEBF0FBECDBF8A836B838D
:101360008FEF89838A81282F30E03E832D834D8142
:101370005E814130510559F18D819E818230910508
:1013800034F42D813E812115310569F05CC04D8119
:101390005E814230510579F18D819E8183309105C6
:1013A00009F43DC050C0E9E3F0E08081282F30E02F
:1013B0008B81882F90E0A90102C0559547958A95A9
:1013C000E2F7CA018170898359815C833DC0E6E3FD
:1013D000F0E08081282F30E08B81882F90E0A901F8
:1013E00002C0559547958A95E2F7CA0181708983B5
:1013F00059815C8329C0E3E3F0E08081282F30E04D
:101400008B81882F90E0A90102C0559547958A9558
:10141000E2F7CA018170898359815C8315C0E0E3DA
:10142000F0E08081282F30E08B81882F90E0A901A7
:1014300002C0559547958A95E2F7CA018170898364
:1014400059815C8301C002C08C818F838F81279674
:101450000FB6F894DEBF0FBECDBFCF91DF910895D8
:10146000DF93CF9300D000D0CDB7DEB789836A83F6
:101470008981282F30E03C832B838B819C818130B4
:10148000910549F12B813C81223031052CF48B816F
:101490009C81009761F05AC02B813C81223031053C
:1014A00071F18B819C8183309105E9F14FC0ABE3F1
:1014B000B0E0EBE3F0E08081482F8A81282F30E014
:1014C00081E090E0022E02C0880F991F0A94E2F793
:1014D00084278C933BC0A8E3B0E0E8E3F0E0808190
:1014E000482F8A81282F30E081E090E0022E02C050
:1014F000880F991F0A94E2F784278C9327C0A5E3ED
:10150000B0E0E5E3F0E08081482F8A81282F30E0C9
:1015100081E090E0022E02C0880F991F0A94E2F742
:1015200084278C9313C0A2E3B0E0E2E3F0E0808173
:10153000482F8A81282F30E081E090E0022E02C0FF
:10154000880F991F0A94E2F784278C930F900F90CD
:101550000F900F90CF91DF910895DF93CF9300D03C
:1015600000D000D0CDB7DEB789836A838981282F68
:1015700030E03E832D838D819E8181309105D1F0B5
:101580002D813E812230310561F18D819E81009750
:1015900009F045C0A5E5B0E0E5E5F0E080818C7F8D
:1015A0008C93A5E5B0E0E5E5F0E090818A81892B98
:1015B0008C9335C0A5E5B0E0E5E5F0E08081837F60
:1015C0008C93A5E5B0E0E5E5F0E08081282F8A81E5
:1015D000882F90E0880F991F880F991F822B8C937A
:1015E0001EC08A81282F30E03C832B838B819C8115
:1015F0008230910569F02B813C812330310579F4EB
:10160000A4E5B0E0E4E5F0E0808180648C9307C05D
:10161000A4E5B0E0E4E5F0E080818F7B8C93269632
:101620000FB6F894DEBF0FBECDBFCF91DF91089506
:10163000DF93CF9300D00F92CDB7DEB78983898136
:10164000282F30E03B832A838A819B81813091055A
:1016500089F02A813B8122303105A1F08A819B816A
:101660000097B9F4A5E5B0E0E5E5F0E080818160A0
:101670008C930FC0A5E5B0E0E5E5F0E080818460E3
:101680008C9307C0A4E5B0E0E4E5F0E080818064DD
:101690008C930F900F900F90CF91DF910895DF936F
:1016A000CF9300D00F92CDB7DEB789838981282FE1
:1016B00030E03B832A838A819B818130910589F0C8
:1016C0002A813B8122303105A1F08A819B810097DC
:1016D000B9F4A5E5B0E0E5E5F0E080818E7F8C937C
:1016E0000FC0A5E5B0E0E5E5F0E080818B7F8C934D
:1016F00007C0A4E5B0E0E4E5F0E080818F7B8C9347
:101700000F900F900F90CF91DF910895DF93CF93BB
:1017100000D000D00F92CDB7DEB789837B836A8378
:101720008A819B81009739F18981282F30E03D83A0
:101730002C838C819D818130910581F02C813D81AC
:101740002230310591F08C819D810097A1F48A812E
:101750009B8190938B0080938A000DC08A819B812E
:1017600090938D0080938C0006C08A819B8190931A
:101770008F0080938E000F900F900F900F900F901E
:10178000CF91DF9108951F920F920FB60F921124FF
:101790002F933F934F935F936F937F938F939F9379
:1017A000AF93BF93EF93FF93DF93CF93CDB7DEB7A4
:1017B00080918A0090918B00009729F0E0918A0037
:1017C000F0918B000995CF91DF91FF91EF91BF913F
:1017D000AF919F918F917F916F915F914F913F91C9
:1017E0002F910F900FBE0F901F9018951F920F9280
:1017F0000FB60F9211242F933F934F935F936F93E4
:101800007F938F939F93AF93BF93EF93FF93DF9358
:10181000CF93CDB7DEB780918C0090918D0000976B
:1018200029F0E0918C00F0918D000995CF91DF9126
:10183000FF91EF91BF91AF919F918F917F916F91A8
:101840005F914F913F912F910F900FBE0F901F907E
:1018500018951F920F920FB60F9211242F933F935A
:101860004F935F936F937F938F939F93AF93BF93A8
:10187000EF93FF93DF93CF93CDB7DEB780918E00C8
:1018800090918F00009729F0E0918E00F0918F00E9
:101890000995CF91DF91FF91EF91BF91AF919F910A
:1018A0008F917F916F915F914F913F912F910F9009
:1018B0000FBE0F901F901895DF93CF93CDB7DEB773
:1018C000AFE5B0E0EFE5F0E0808180688C93CF91E8
:1018D000DF910895DF93CF93CDB7DEB7AFE5B0E0EA
:1018E000EFE5F0E080818F778C93CF91DF910895C1
:1018F000DF93CF93CDB7DEB763970FB6F894DEBF13
:101900000FBECDBF8FEF8B8B1F861A8ADAC08A89F4
:10191000882F90E0FC01E858FF4F908181E0692F0B
:1019200040E00E940C08198AB6C08989882F90E08F
:10193000FC01E458FF4F908181E0692F0E94A409C7
:10194000888B8889882309F0A3C080E090E0A0EF0D
:10195000B1E48B879C87AD87BE876B857C858D8541
:101960009E8520E030E04AEF54E40E941F02DC0133
:10197000CB018F839887A987BA876F8178858985FE
:101980009A8520E030E040E85FE30E942504882348
:101990002CF481E090E09E838D833FC06F81788539
:1019A00089859A8520E03FEF4FE757E40E94C50301
:1019B00018164CF56B857C858D859E8520E030E082
:1019C00040E251E40E941F02DC01CB01BC01CD01C9
:1019D0000E944900DC01CB019E838D830FC088ECFF
:1019E00090E09C838B838B819C810197F1F79C8392
:1019F0008B838D819E8101979E838D838D819E81B6
:101A0000009769F714C06F81788589859A850E944F
:101A10004900DC01CB019E838D838D819E819A8359
:101A2000898389819A810197F1F79A8389838989CA
:101A3000882F90E0FC01E458FF4F908181E0692FEE
:101A40000E94A409888B0CC08989882F90E0FC0132
:101A5000E458FF4F908181E0692F0E94A409888B90
:101A60008889882389F38A89482F50E08989282F1B
:101A700030E0CA01880F991F880F991F820F931FAA
:101A8000FC01E859FF4F80818B8B81E08F8707C075
:101A900089898F5F898B8989843008F446CF8A8948
:101AA000882F90E0FC01E858FF4F908181E0692F7A
:101AB00041E00E940C088F85813039F08A898F5F60
:101AC0008A8B8A89843008F422CF8B8963960FB67B
:101AD000F894DEBF0FBECDBFCF91DF910895DF93A5
:101AE000CF93CDB7DEB72F970FB6F894DEBF0FBEFA
:101AF000CDBF8F8783E060E041E00E940C0883E067
:101B000061E040E00E940C0882E06F850E9463095A
:101B100083E062E041E00E940C0880E090E0A0E0F9
:101B2000B0E48B879C87AD87BE876B857C858D8570
:101B30009E8520E030E04AEF54E40E941F02DC0161
:101B4000CB018F839887A987BA876F81788589852C
:101B50009A8520E030E040E85FE30E942504882376
:101B60002CF481E090E09E838D833FC06F81788567
:101B700089859A8520E03FEF4FE757E40E94C5032F
:101B800018164CF56B857C858D859E8520E030E0B0
:101B900040E251E40E941F02DC01CB01BC01CD01F7
:101BA0000E944900DC01CB019E838D830FC088EC2D
:101BB00090E09C838B838B819C810197F1F79C83C0
:101BC0008B838D819E8101979E838D838D819E81E4
:101BD000009769F714C06F81788589859A850E947E
:101BE0004900DC01CB019E838D838D819E819A8388
:101BF000898389819A810197F1F79A83898383E0A8
:101C000062E040E00E940C082F960FB6F894DEBF09
:101C10000FBECDBFCF91DF910895DF93CF93CDB7A6
:101C2000DEB72F970FB6F894DEBF0FBECDBF8F87FC
:101C300083E060E040E00E940C0883E061E040E067
:101C40000E940C0882E06F850E94630983E062E0D5
:101C500041E00E940C0880E090E0A0E0B0E48B87B7
:101C60009C87AD87BE876B857C858D859E8520E0B2
:101C700030E04AEF54E40E941F02DC01CB018F8365
:101C80009887A987BA876F81788589859A8520E0AA
:101C900030E040E85FE30E94250488232CF481E0D3
:101CA00090E09E838D833FC06F81788589859A857A
:101CB00020E03FEF4FE757E40E94C50318164CF5AC
:101CC0006B857C858D859E8520E030E040E251E487
:101CD0000E941F02DC01CB01BC01CD010E94490022
:101CE000DC01CB019E838D830FC088EC90E09C8348
:101CF0008B838B819C810197F1F79C838B838D81F2
:101D00009E8101979E838D838D819E81009769F7C7
:101D100014C06F81788589859A850E944900DC010D
:101D2000CB019E838D838D819E819A838983898156
:101D30009A810197F1F79A83898383E062E040E01A
:101D40000E940C082F960FB6F894DEBF0FBECDBFD1
:101D5000CF91DF9108950F931F93DF93CF93CDB76A
:101D6000DEB7CC54D0400FB6F894DEBF0FBECDBF67
:101D7000FE01E75BFF4F80E090E0A0EFB1E48083DD
:101D80009183A283B3838E010B5B1F4FFE01E75B40
:101D9000FF4F608171818281938120E030E04AEFC2
:101DA00054E40E941F02DC01CB01F801808391837F
:101DB000A283B383FE01EB5BFF4F6081718182815F
:101DC000938120E030E040E85FE30E94250488230F
:101DD00044F4FE01ED5BFF4F81E090E0918380834E
:101DE00064C0FE01EB5BFF4F608171818281938152
:101DF00020E03FEF4FE757E40E94C50318160CF0B0
:101E000043C0FE01E75BFF4F608171818281938156
:101E100020E030E040E251E40E941F02DC01CB01EF
:101E20008E010D5B1F4FBC01CD010E944900DC01FA
:101E3000CB01F801918380831FC0FE01EF5BFF4F50
:101E400088EC90E091838083FE01EF5BFF4F8081FF
:101E500091810197F1F7FE01EF5BFF4F9183808342
:101E6000DE01AD5BBF4FFE01ED5BFF4F80819181D5
:101E7000019711969C938E93FE01ED5BFF4F80813D
:101E800091810097D1F624C08E010D5B1F4FFE019A
:101E9000EB5BFF4F60817181828193810E944900D9
:101EA000DC01CB01F80191838083FE01ED5BFF4FE4
:101EB00080819181FE01FF9691838083FE01FF96D0
:101EC000808191810197F1F7FE01FF9691838083D4
:101ED00088E30E940D0E80E090E0A0E2B2E48BAFB8
:101EE0009CAFADAFBEAF6BAD7CAD8DAD9EAD2BEA03
:101EF0003AEA4AE250E40E941F02DC01CB018FABB8
:101F000098AFA9AFBAAF6FA978AD89AD9AAD20E00F
:101F100030E040E85FE30E94250488231CF481E060
:101F20008EAB91C06FA978AD89AD9AAD20E030E05D
:101F30004FE753E40E94C50318160CF07BC06BAD4D
:101F40007CAD8DAD9EAD20E030E04AE754E40E94C8
:101F50001903DC01CB018AAB9BABACABBDAB6AA96F
:101F60007BA98CA99DA920E030E04AEF54E40E94AF
:101F70001F02DC01CB018EA79FA7A8ABB9AB6EA552
:101F80007FA588A999A920E030E040E85FE30E949E
:101F9000250488232CF481E090E09DA78CA73FC006
:101FA0006EA57FA588A999A920E03FEF4FE757E4E8
:101FB0000E94C50318164CF56AA97BA98CA99DA996
:101FC00020E030E040E251E40E941F02DC01CB013E
:101FD000BC01CD010E944900DC01CB019DA78CA76B
:101FE0000FC088EC90E09BA78AA78AA59BA50197C4
:101FF000F1F79BA78AA78CA59DA501979DA78CA704
:102000008CA59DA5009769F724C06EA57FA588A91A
:1020100099A90E944900DC01CB019DA78CA78CA542
:102020009DA599A788A788A599A50197F1F799A7D4
:1020300088A70FC06FA978AD89AD9AAD0E944900FD
:10204000DC01CB018EAB8EA98FA38FA18A95F1F70E
:102050008FA38FE00E940D0E80E090E0A0E2B2E43A
:102060008BA39CA3ADA3BEA36BA17CA18DA19EA1BC
:102070002BEA3AEA4AE250E40E941F02DC01CB015B
:102080008F8F98A3A9A3BAA36F8D78A189A19AA1D4
:1020900020E030E040E85FE30E94250488231CF440
:1020A00081E08E8F91C06F8D78A189A19AA120E0E7
:1020B00030E04FE753E40E94C50318160CF07BC0D4
:1020C0006BA17CA18DA19EA120E030E04AE754E401
:1020D0000E941903DC01CB018A8F9B8FAC8FBD8FCF
:1020E0006A8D7B8D8C8D9D8D20E030E04AEF54E42D
:1020F0000E941F02DC01CB018E8B9F8BA88FB98FB2
:102100006E897F89888D998D20E030E040E85FE31B
:102110000E94250488232CF481E090E09D8B8C8B19
:102120003FC06E897F89888D998D20E03FEF4FE712
:1021300057E40E94C50318164CF56A8D7B8D8C8D73
:102140009D8D20E030E040E251E40E941F02DC015E
:10215000CB01BC01CD010E944900DC01CB019D8B6C
:102160008C8B0FC088EC90E09B8B8A8B8A899B8933
:102170000197F1F79B8B8A8B8C899D8901979D8BA9
:102180008C8B8C899D89009769F724C06E897F8923
:10219000888D998D0E944900DC01CB019D8B8C8B31
:1021A0008C899D89998B888B888999890197F1F70A
:1021B000998B888B0FC06F8D78A189A19AA10E94FD
:1021C0004900DC01CB018E8F8E8D8F878F858A959C
:1021D000F1F78F8781E00E940D0E80E090E0A0E093
:1021E000B0E48B879C87AD87BE876B857C858D85AA
:1021F0009E8520E030E04AEF54E40E941F02DC019B
:10220000CB018F839887A987BA876F817885898565
:102210009A8520E030E040E85FE30E9425048823AF
:102220002CF481E090E09E838D833FC06F817885A0
:1022300089859A8520E03FEF4FE757E40E94C50368
:1022400018164CF56B857C858D859E8520E030E0E9
:1022500040E251E40E941F02DC01CB01BC01CD0130
:102260000E944900DC01CB019E838D830FC088EC66
:1022700090E09C838B838B819C810197F1F79C83F9
:102280008B838D819E8101979E838D838D819E811D
:10229000009769F714C06F81788589859A850E94B7
:1022A0004900DC01CB019E838D838D819E819A83C1
:1022B000898389819A810197F1F79A83898386E0DE
:1022C0000E940D0EC45BDF4F0FB6F894DEBF0FBE49
:1022D000CDBFCF91DF911F910F910895DF93CF93E1
:1022E000CDB7DEB72E970FB6F894DEBF0FBECDBFC9
:1022F00081E00E940D0E80E090E0A0E0B0E48B87CA
:102300009C87AD87BE876B857C858D859E8520E00B
:1023100030E04AEF54E40E941F02DC01CB018F83BE
:102320009887A987BA876F81788589859A8520E003
:1023300030E040E85FE30E94250488232CF481E02C
:1023400090E09E838D833FC06F81788589859A85D3
:1023500020E03FEF4FE757E40E94C50318164CF505
:102360006B857C858D859E8520E030E040E251E4E0
:102370000E941F02DC01CB01BC01CD010E9449007B
:10238000DC01CB019E838D830FC088EC90E09C83A1
:102390008B838B819C810197F1F79C838B838D814B
:1023A0009E8101979E838D838D819E81009769F721
:1023B00014C06F81788589859A850E944900DC0167
:1023C000CB019E838D838D819E819A8389838981B0
:1023D0009A810197F1F79A8389832E960FB6F89424
:1023E000DEBF0FBECDBFCF91DF910895DF93CF93B6
:1023F00000D0CDB7DEB79A8389830BC0E981FA811B
:10240000208189819A8101969A838983822F0E94F3
:102410006F0DE981FA818081882381F70F900F90F9
:10242000CF91DF910895DF93CF9300D000D0CDB747
:10243000DEB789836A838981282F30E03C832B8330
:102440008B819C818130910531F02B813C81223040
:10245000310531F009C08A8181580E940D0E04C0F7
:102460008A8181540E940D0E0F900F900F900F9053
:10247000CF91DF910895DF93CF9300D000D0CDB7F7
:10248000DEB79C838B8381E090E09A8389838B8184
:102490009C81009731F580E30E940D0E22C0898156
:1024A0009A819C01220F331FC901880F991F880F41
:1024B000991FF901E80FF91F8B819C812AE030E018
:1024C000B9010E948E1D8E0F9F1F9A8389838B8175
:1024D0009C812AE030E0B9010E948E1DCB019C83D3
:1024E0008B838B819C810097D1F614C089819A815E
:1024F0002AE030E0B9010E948E1D805D0E946F0DC0
:1025000089819A812AE030E0B9010E948E1DCB01B9
:102510009A83898389819A818130910539F70F9057
:102520000F900F900F90CF91DF910895DF93CF938D
:10253000CDB7DEB727970FB6F894DEBF0FBECDBF7D
:102540009C838B836D834E832F838D81882F90E0B6
:10255000880F991F880F991F880F991F8A838A8176
:1025600080648A838A810E940D0E19820EC089813F
:10257000282F30E08B819C81FC01E20FF31F8081CA
:102580000E946F0D89818F5F89838981883078F3FC
:102590008E816F810E9413128D810E946F0D27968C
:1025A0000FB6F894DEBF0FBECDBFCF91DF91089577
:1025B000DF93CF9300D0CDB7DEB789836A8389815B
:1025C0006A8141E00E940C080F900F90CF91DF913B
:1025D0000895DF93CF9300D0CDB7DEB789836A83A8
:1025E00089816A8140E00E940C080F900F90CF9182
:1025F000DF910895DF93CF9300D00F92CDB7DEB770
:1026000089836A834B8389816A814B810E940C088C
:102610000F900F900F90CF91DF910895DF93CF939C
:1026200000D0CDB7DEB789836A8389816A810E9431
:10263000300A0F900F90CF91DF910895DF93CF93E1
:1026400000D000D0CDB7DEB79C838B838B819C817B
:10265000CC01A0E0B0E028EE33E040E050E0BC0167
:10266000CD010E94631DDC01CB0124EB30E040E092
:1026700050E0BC01CD010E94A21DDA01C9018951BF
:102680009C4F9A83898389819A810E949B140F9021
:102690000F900F900F90CF91DF910895DF93CF931C
:1026A000CDB7DEB7A3E5B0E0E3E5F0E08081877F5A
:1026B0008C93A3E5B0E0E3E5F0E080818F7B8C9321
:1026C000A9E5B0E0E9E5F0E080818D7F8C93A9E594
:1026D000B0E0E9E5F0E0808181608C93A3E5B0E0B3
:1026E000E3E5F0E08081887F8C93A3E5B0E0E3E54B
:1026F000F0E0808182608C93CF91DF910895DF9329
:10270000CF93CDB7DEB7A3E5B0E0E3E5F0E080819D
:102710008E7F8C93A3E5B0E0E3E5F0E080818D7FD0
:102720008C93A3E5B0E0E3E5F0E080818B7F8C93B0
:10273000CF91DF910895DF93CF930F92CDB7DEB79E
:102740008983E2E5F0E0898180830F90CF91DF916A
:102750000895DF93CF930F92CDB7DEB78983ECE571
:10276000F0E0898180830F90CF91DF910895DF930E
:10277000CF9300D0CDB7DEB79A83898389819A81C0
:10278000009731F089819A81909391008093900015
:102790000F900F90CF91DF910895DF93CF9300D0EA
:1027A000CDB7DEB79A83898389819A81009731F00A
:1027B00089819A8190939300809392000F900F905B
:1027C000CF91DF9108951F920F920FB60F921124AF
:1027D0002F933F934F935F936F937F938F939F9329
:1027E000AF93BF93EF93FF93DF93CF93CDB7DEB754
:1027F0008091920090919300009729F0E0919200CF
:10280000F09193000995CF91DF91FF91EF91BF91E6
:10281000AF919F918F917F916F915F914F913F9178
:102820002F910F900FBE0F901F9018951F920F922F
:102830000FB60F9211242F933F934F935F936F9393
:102840007F938F939F93AF93BF93EF93FF93DF9308
:10285000CF93CDB7DEB78091900090919100009713
:1028600029F0E0919000F09191000995CF91DF91CE
:10287000FF91EF91BF91AF919F918F917F916F9158
:102880005F914F913F912F910F900FBE0F901F902E
:102890001895DF93CF93CDB7DEB7AFE4B0E0EFE4A8
:1028A000F0E080818E7F8C93AFE4B0E0EFE4F0E065
:1028B000808182608C93AEE4B0E0EEE4F0E0808151
:1028C00088608C93AEE4B0E0EEE4F0E0808180615B
:1028D0008C93AFE4B0E0EFE4F0E080818F7B8C93E9
:1028E000AFE4B0E0EFE4F0E0808180688C93E6E450
:1028F000F0E08FE19EE491838083EAE4F0E08CEDE8
:1029000095E091838083AEE4B0E0EEE4F0E0808176
:102910008E7F8C93AEE4B0E0EEE4F0E080818260E4
:102920008C93AEE4B0E0EEE4F0E080818B7F8C939A
:10293000CF91DF910895DF93CF9300D0CDB7DEB76D
:102940009A838983EAE4F0E089819A819183808384
:102950000F900F90CF91DF910895DF93CF9300D028
:10296000CDB7DEB79A838983ECE4F0E089819A8160
:10297000918380830F900F90CF91DF910895DF9323
:10298000CF93CDB7DEB7ECE4F0E080819181CF91B9
:10299000DF910895DF93CF93CDB7DEB7E6E4F0E0A3
:1029A00080819181CF91DF910895DF93CF93CDB74F
:1029B000DEB7A9E5B0E0E9E5F0E0808180628C93C4
:1029C000AEE4B0E0EEE4F0E0808180648C93CF91DF
:1029D000DF910895DF93CF93CDB7DEB7A9E5B0E0DF
:1029E000E9E5F0E080818F7D8C93CF91DF910895B0
:1029F000DF93CF9300D0CDB7DEB79A8389838981E7
:102A00009A81009731F089819A8190939500809303
:102A100094000F900F90CF91DF9108951F920F9225
:102A20000FB60F9211242F933F934F935F936F93A1
:102A30007F938F939F93AF93BF93EF93FF93DF9316
:102A4000CF93CDB7DEB78091940090919500009719
:102A500029F0E0919400F09195000995CF91DF91D4
:102A6000FF91EF91BF91AF919F918F917F916F9166
:102A70005F914F913F912F910F900FBE0F901F903C
:102A80001895DF93CF9300D00F92CDB7DEB789832F
:102A90008981282F30E03B832A838A819B8100979C
:102AA00031F02A813B812130310549F00FC0AEE47D
:102AB000B0E0EEE4F0E080818F7B8C9307C0AEE461
:102AC000B0E0EEE4F0E0808180648C930F900F9092
:102AD0000F90CF91DF9108950F931F93DF93CF93C2
:102AE000CDB7DEB7C859D0400FB6F894DEBF0FBEE1
:102AF000CDBFFE01E856FF4F8FEF8083FE01E95600
:102B0000FF4F8FEF8083FE01EA56FF4F8FEF8083E8
:102B1000FE01EB56FF4F8FEF8083FE01EC56FF4F17
:102B20008FEF8083FE01ED56FF4F8FEF8083FE0114
:102B3000EE56FF4F8FEF8083FE01EF56FF4F10825E
:102B40000E94D0060E944E130E945C0C88EC9CE10F
:102B50000E94B71380E060E00E94A409FE01E856DD
:102B6000FF4F808380E061E00E94A409FE01E956E6
:102B7000FF4F808380E062E00E94A409FE01EA56D4
:102B8000FF4F808380E063E00E94A409FE01EB56C2
:102B9000FF4F808380E064E00E94A409FE01EC56B0
:102BA000FF4F808380E065E00E94A409FE01ED569E
:102BB000FF4F808380E066E00E94A409FE01EE568C
:102BC000FF4F8083FE01E856FF4F80818823A9F4E0
:102BD000809197008F5F8093970008C080E060E04D
:102BE0000E94A409FE01E856FF4F8083FE01E856CB
:102BF000FF4F8081882391F39CC0FE01E956FF4F6F
:102C000080818823A9F4809198008F5F8093980039
:102C100008C080E061E00E94A409FE01E956FF4F70
:102C20008083FE01E956FF4F8081882391F381C0A4
:102C3000FE01EA56FF4F80818823A9F48091970016
:102C400081508093970008C080E062E00E94A40950
:102C5000FE01EA56FF4F8083FE01EA56FF4F808156
:102C6000882391F366C0FE01EB56FF4F80818823D5
:102C7000A9F48091980081508093980008C080E06A
:102C800063E00E94A409FE01EB56FF4F8083FE0122
:102C9000EB56FF4F8081882391F34BC0FE01EC5629
:102CA000FF4F8081882351F5FE01EF56FF4F808151
:102CB000882341F40E946A0CFE01EF56FF4F81E029
:102CC000808315C0FE01EF56FF4F8081813079F47B
:102CD0000E945C0CFE01EF56FF4F108208C080E09E
:102CE00064E00E94A409FE01EC56FF4F8083FE01C0
:102CF000EC56FF4F8081882391F31BC0FE01EE56F6
:102D0000FF4F80818823A9F41092960010929700BB
:102D10001092980008C080E066E00E94A409FE01BD
:102D2000EE56FF4F8083FE01EE56FF4F80818823D1
:102D300091F3E2E3F0E08EEF8083A5E3B0E08091D1
:102D40009B00882F90E0FC01E058FF4F80818C931E
:102D5000FE01E357FF4F80E090E0A8E4B3E48083F6
:102D60009183A283B3838E0107571F4FFE01E35760
:102D7000FF4F60817181828193812BEA3AEA4AE2B6
:102D800050E40E941F02DC01CB01F8018083918393
:102D9000A283B383FE01E757FF4F60817181828177
:102DA000938120E030E040E85FE30E94250488231F
:102DB00034F4FE01E857FF4F81E08083E0C0FE015C
:102DC000E757FF4F608171818281938120E030E07D
:102DD0004FE753E40E94C50318160CF0C0C0FE0173
:102DE000E357FF4F608171818281938120E030E061
:102DF0004AE754E40E941903DC01CB01FE01EC57C1
:102E0000FF4F80839183A283B3838E0100581F4FAD
:102E1000FE01EC57FF4F608171818281938120E038
:102E200030E04AEF54E40E941F02DC01CB01F801BC
:102E300080839183A283B383FE01E058FF4F6081BA
:102E400071818281938120E030E040E85FE30E945D
:102E50002504882344F4FE01E258FF4F81E090E00E
:102E60009183808364C0FE01E058FF4F60817181CF
:102E70008281938120E03FEF4FE757E40E94C50332
:102E800018160CF043C0FE01EC57FF4F60817181B2
:102E90008281938120E030E040E251E40E941F02F1
:102EA000DC01CB018E0102581F4FBC01CD010E94F5
:102EB0004900DC01CB01F801918380831FC0FE0132
:102EC000E458FF4F88EC90E091838083FE01E45842
:102ED000FF4F808191810197F1F7FE01E458FF4F88
:102EE00091838083DE01A258BF4FFE01E258FF4F5D
:102EF00080819181019711969C938E93FE01E258F7
:102F0000FF4F808191810097D1F64BC08E0102580E
:102F10001F4FFE01E058FF4F6081718182819381D4
:102F20000E944900DC01CB01F80191838083DE011E
:102F3000A658BF4FFE01E258FF4F80819181119644
:102F40009C938E93FE01E658FF4F808191810197FB
:102F5000F1F7FE01E658FF4F9183808322C08E0176
:102F600008571F4FFE01E757FF4F60817181828133
:102F700093810E944900DC01CB01F8018083DE01CE
:102F8000A758BF4FFE01E857FF4F80818C93FE0189
:102F9000E758FF4F80818A95F1F7FE01E758FF4F10
:102FA0008083E2E3F0E08DEF8083A5E3B0E08091E1
:102FB0009C00882F90E0FC01E058FF4F80818C93AB
:102FC000FE01EB58FF4F80E090E0A8E4B3E480837B
:102FD0009183A283B3838E010F581F4FFE01EB58DC
:102FE000FF4F60817181828193812BEA3AEA4AE244
:102FF00050E40E941F02DC01CB01F8018083918321
:10300000A283B383FE01EF58FF4F608171818281FB
:10301000938120E030E040E85FE30E9425048823AC
:1030200034F4FE01E059FF4F81E08083E0C0FE01EF
:10303000EF58FF4F608171818281938120E030E001
:103040004FE753E40E94C50318160CF0C0C0FE0100
:10305000EB58FF4F608171818281938120E030E0E5
:103060004AE754E40E941903DC01CB01FE01E45954
:10307000FF4F80839183A283B3838E0108591F4F32
:10308000FE01E459FF4F608171818281938120E0CC
:1030900030E04AEF54E40E941F02DC01CB01F8014A
:1030A00080839183A283B383FE01E859FF4F60813F
:1030B00071818281938120E030E040E85FE30E94EB
:1030C0002504882344F4FE01EA59FF4F81E090E093
:1030D0009183808364C0FE01E859FF4F6081718154
:1030E0008281938120E03FEF4FE757E40E94C503C0
:1030F00018160CF043C0FE01E459FF4F6081718146
:103100008281938120E030E040E251E40E941F027E
:10311000DC01CB018E010A591F4FBC01CD010E9479
:103120004900DC01CB01F801918380831FC0FE01BF
:10313000EC59FF4F88EC90E091838083FE01EC59BD
:10314000FF4F808191810197F1F7FE01EC59FF4F0C
:1031500091838083DE01AA59BF4FFE01EA59FF4FD8
:1031600080819181019711969C938E93FE01EA597B
:10317000FF4F808191810097D1F64BC08E010A5993
:103180001F4FFE01E859FF4F608171818281938159
:103190000E944900DC01CB01F80191838083DE01AC
:1031A000AE59BF4FFE01EA59FF4F808191811196C0
:1031B0009C938E93FE01EE59FF4F80819181019780
:1031C000F1F7FE01EE59FF4F9183808322C08E01FB
:1031D00000591F4FFE01EF58FF4F608171818281BE
:1031E00093810E944900DC01CB01F8018083DE015C
:1031F000AF59BF4FFE01E059FF4F80818C93FE0114
:10320000EF59FF4F80818A95F1F7FE01EF59FF4F8B
:103210008083E2E3F0E08BEF8083A5E3B0E0809170
:103220009D00882F90E0FC01E058FF4F80818C9337
:10323000FE01E35AFF4F80E090E0A8E4B3E480830E
:103240009183A283B3838E01075A1F4FFE01E35A75
:10325000FF4F60817181828193812BEA3AEA4AE2D1
:1032600050E40E941F02DC01CB01F80180839183AE
:10327000A283B383FE01E75AFF4F6081718182818F
:10328000938120E030E040E85FE30E94250488233A
:1032900034F4FE01E85AFF4F81E08083E0C0FE0174
:1032A000E75AFF4F608171818281938120E030E095
:1032B0004FE753E40E94C50318160CF0C0C0FE018E
:1032C000E35AFF4F608171818281938120E030E079
:1032D0004AE754E40E941903DC01CB01FE01EC5AD9
:1032E000FF4F80839183A283B3838E01005B1F4FC6
:1032F000FE01EC5AFF4F608171818281938120E051
:1033000030E04AEF54E40E941F02DC01CB01F801D7
:1033100080839183A283B383FE01E05BFF4F6081D2
:1033200071818281938120E030E040E85FE30E9478
:103330002504882344F4FE01E25BFF4F81E090E026
:103340009183808364C0FE01E05BFF4F60817181E7
:103350008281938120E03FEF4FE757E40E94C5034D
:1033600018160CF043C0FE01EC5AFF4F60817181CA
:103370008281938120E030E040E251E40E941F020C
:10338000DC01CB018E01025B1F4FBC01CD010E940D
:103390004900DC01CB01F801918380831FC0FE014D
:1033A000E45BFF4F88EC90E091838083FE01E45B57
:1033B000FF4F808191810197F1F7FE01E45BFF4FA0
:1033C00091838083DE01A25BBF4FFE01E25BFF4F72
:1033D00080819181019711969C938E93FE01E25B0F
:1033E000FF4F808191810097D1F64BC08E01025B27
:1033F0001F4FFE01E05BFF4F6081718182819381ED
:103400000E944900DC01CB01F80191838083DE0139
:10341000A65BBF4FFE01E25BFF4F80819181119659
:103420009C938E93FE01E65BFF4F80819181019713
:10343000F1F7FE01E65BFF4F9183808322C08E018E
:10344000085A1F4FFE01E75AFF4F60817181828148
:1034500093810E944900DC01CB01F8018083DE01E9
:10346000A75BBF4FFE01E85AFF4F80818C93FE019E
:10347000E75BFF4F80818A95F1F7FE01E75BFF4F25
:103480008083E2E3F0E087EF8083A5E3B0E0809102
:103490009E00882F90E0FC01E058FF4F80818C93C4
:1034A000FE01EB5BFF4F80E090E0A8E4B3E4808393
:1034B0009183A283B3838E010F5B1F4FFE01EB5BF1
:1034C000FF4F60817181828193812BEA3AEA4AE25F
:1034D00050E40E941F02DC01CB01F801808391833C
:1034E000A283B383FE01EF5BFF4F60817181828114
:1034F000938120E030E040E85FE30E9425048823C8
:1035000034F481E0FE01E05CFF4F80839DC0FE014A
:10351000EF5BFF4F608171818281938120E030E019
:103520004FE753E40E94C50318160CF07EC0FE015D
:10353000EB5BFF4F608171818281938120E030E0FD
:103540004AE754E40E941903DC01CB018CAF9DAF24
:10355000AEAFBFAF6CAD7DAD8EAD9FAD20E030E0C6
:103560004AEF54E40E941F02DC01CB0188AF99AFFF
:10357000AAAFBBAF68AD79AD8AAD9BAD20E030E0BE
:1035800040E85FE30E94250488232CF481E090E06A
:103590009FAB8EAB3FC068AD79AD8AAD9BAD20E0EF
:1035A0003FEF4FE757E40E94C50318164CF56CAD8A
:1035B0007DAD8EAD9FAD20E030E040E251E40E9451
:1035C0001F02DC01CB01BC01CD010E944900DC01DE
:1035D000CB019FAB8EAB0FC088EC90E09DAB8CAB6A
:1035E0008CA99DA90197F1F79DAB8CAB8EA99FA9E2
:1035F00001979FAB8EAB8EA99FA9009769F72DC04D
:1036000068AD79AD8AAD9BAD0E944900DC01CB016C
:103610009FAB8EAB8EA99FA99BAB8AAB8AA99BA9B6
:103620000197F1F79BAB8AAB18C0FE01EF5BFF4F30
:1036300060817181828193810E944900DC01CB010C
:10364000FE01E05CFF4F8083FE01E05CFF4F808164
:1036500089AB89A98A95F1F789ABE2E3F0E08FEEB7
:103660008083A5E3B0E080919F00882F90E0FC016B
:10367000E058FF4F80818C9380E090E0A8E4B3E4B1
:103680008DA79EA7AFA7B8AB6DA57EA58FA598A95E
:103690002BEA3AEA4AE250E40E941F02DC01CB0125
:1036A00089A79AA7ABA7BCA769A57AA58BA59CA556
:1036B00020E030E040E85FE30E94250488231CF40A
:1036C00081E088A791C069A57AA58BA59CA520E07B
:1036D00030E04FE753E40E94C50318160CF07BC09E
:1036E0006DA57EA58FA598A920E030E04AE754E4B7
:1036F0000E941903DC01CB018CA39DA3AEA3BFA341
:103700006CA17DA18EA19FA120E030E04AEF54E49E
:103710000E941F02DC01CB0188A399A3AAA3BBA32B
:1037200068A179A18AA19BA120E030E040E85FE395
:103730000E94250488232CF481E090E09F8F8E8FD7
:103740003FC068A179A18AA19BA120E03FEF4FE78C
:1037500057E40E94C50318164CF56CA17DA18EA1FB
:103760009FA120E030E040E251E40E941F02DC0112
:10377000CB01BC01CD010E944900DC01CB019F8F30
:103780008E8F0FC088EC90E09D8F8C8F8C8D9D8DDF
:103790000197F1F79D8F8C8F8E8D9F8D01979F8F55
:1037A0008E8F8E8D9F8D009769F724C068A179A1B7
:1037B0008AA19BA10E944900DC01CB019F8F8E8FC3
:1037C0008E8D9F8D9B8F8A8F8A8D9B8D0197F1F7B0
:1037D0009B8F8A8F0FC069A57AA58BA59CA50E9497
:1037E0004900DC01CB0188A788A5898F898D8A953E
:1037F000F1F7898FE2E3F0E08FED8083A5E3B0E09D
:103800008091A000882F90E0FC01E058FF4F80815C
:103810008C9380E090E0A8E4B3E48D8B9E8BAF8B1B
:10382000B88F6D897E898F89988D2BEA3AEA4AE2B2
:1038300050E40E941F02DC01CB01898B9A8BAB8B79
:10384000BC8B69897A898B899C8920E030E040E8CB
:103850005FE30E94250488231CF481E0888B91C0DB
:1038600069897A898B899C8920E030E04FE753E4AD
:103870000E94C50318160CF07BC06D897E898F8964
:10388000988D20E030E04AE754E40E941903DC01FF
:10389000CB018C879D87AE87BF876C857D858E85A4
:1038A0009F8520E030E04AEF54E40E941F02DC01D3
:1038B000CB0188879987AA87BB87688579858A85A0
:1038C0009B8520E030E040E85FE30E9425048823E8
:1038D0002CF481E090E09F838E833FC068857985DA
:1038E0008A859B8520E03FEF4FE757E40E94C503A0
:1038F00018164CF56C857D858E859F8520E030E01F
:1039000040E251E40E941F02DC01CB01BC01CD0169
:103910000E944900DC01CB019F838E830FC088EC9D
:1039200090E09D838C838C819D810197F1F79D832D
:103930008C838E819F8101979F838E838E819F814F
:10394000009769F707C9688579858A859B850E94F4
:103950004900DC01CB019F838E838E819F819B83F5
:103960008A838A819B810197F1F79B838A83F2C8BE
:1039700069897A898B899C890E944900DC01CB0185
:10398000888B8889898389818A95F1F78983E2C840
:10399000DF93CF93CDB7DEB78091990090919A00D5
:1039A000019690939A00809399008091990090914C
:1039B0009A002FE08334920709F082C010929A0097
:1039C00010929900809196008F5F8093960080916D
:1039D00096008C3339F410929600809197008F5F97
:1039E00080939700809197008C3339F41092970060
:1039F000809198008F5F8093980080919800883123
:103A000011F410929800809196009AE0692F0E941C
:103A1000821D80939C0080919C00882F90E09C01E7
:103A2000220F331FC901880F991F880F991F820F1A
:103A3000931F909581959F4F982F80919600890FA5
:103A400080939B00809197009AE0692F0E94821DCD
:103A500080939E0080919E00882F90E09C01220F11
:103A6000331FC901880F991F880F991F820F931F59
:103A7000909581959F4F982F80919700890F809303
:103A80009D00809198009AE0692F0E94821D80938A
:103A9000A0008091A000882F90E09C01220F331F8E
:103AA000C901880F991F880F991F820F931F909546
:103AB00081959F4F982F80919800890F80939F0048
:103AC000CF91DF910895629FD001739FF001829F93
:103AD000E00DF11D649FE00DF11D929FF00D839F9D
:103AE000F00D749FF00D659FF00D9927729FB00D3A
:103AF000E11DF91F639FB00DE11DF91FBD01CF014D
:103B000011240895991B79E004C0991F961708F0B5
:103B1000961B881F7A95C9F780950895AA1BBB1B31
:103B200051E107C0AA1FBB1FA617B70710F0A61BBD
:103B3000B70B881F991F5A95A9F780959095BC01DE
:103B4000CD010895A1E21A2EAA1BBB1BFD010DC0D9
:103B5000AA1FBB1FEE1FFF1FA217B307E407F5073D
:103B600020F0A21BB30BE40BF50B661F771F881F19
:103B7000991F1A9469F760957095809590959B01AF
:103B8000AC01BD01CF0108952F923F924F925F92F9
:103B90006F927F928F929F92AF92BF92CF92DF925D
:103BA000EF92FF920F931F93CF93DF93CDB7DEB7C2
:103BB000CA1BDB0B0FB6F894DEBF0FBECDBF099456
:103BC0002A88398848885F846E847D848C849B84AD
:103BD000AA84B984C884DF80EE80FD800C811B81BB
:103BE000AA81B981CE0FD11D0FB6F894DEBF0FBEEA
:0A3BF000CDBFED010895F894FFCF5A
:103BFA0000000000000000003738392F3435362A1B
:103C0A003132332D43303D2B0001020304050607F0
:0A3C1A003F065B4F666D7D077F6F6C
:00000001FF
